{
  "contractName": "delegateContract",
  "abi": [
    {
      "anonymous": false,
      "inputs": [
        {
          "indexed": true,
          "internalType": "address",
          "name": "previousOwner",
          "type": "address"
        },
        {
          "indexed": true,
          "internalType": "address",
          "name": "newOwner",
          "type": "address"
        }
      ],
      "name": "OwnershipTransferred",
      "type": "event"
    },
    {
      "inputs": [],
      "name": "bbusd",
      "outputs": [
        {
          "internalType": "address",
          "name": "",
          "type": "address"
        }
      ],
      "stateMutability": "view",
      "type": "function",
      "constant": true
    },
    {
      "inputs": [],
      "name": "claimOwnership",
      "outputs": [],
      "stateMutability": "nonpayable",
      "type": "function"
    },
    {
      "inputs": [
        {
          "internalType": "address",
          "name": "",
          "type": "address"
        }
      ],
      "name": "delegatorStats",
      "outputs": [
        {
          "internalType": "address",
          "name": "delegatorAddr",
          "type": "address"
        },
        {
          "internalType": "uint256",
          "name": "oneStaked",
          "type": "uint256"
        },
        {
          "internalType": "uint256",
          "name": "oxratio",
          "type": "uint256"
        },
        {
          "internalType": "uint256",
          "name": "earnedOne",
          "type": "uint256"
        },
        {
          "internalType": "uint256",
          "name": "earnedOpenx",
          "type": "uint256"
        },
        {
          "internalType": "uint256",
          "name": "earnedUsd",
          "type": "uint256"
        }
      ],
      "stateMutability": "view",
      "type": "function",
      "constant": true
    },
    {
      "inputs": [],
      "name": "factory",
      "outputs": [
        {
          "internalType": "contract IUniswapV2Factory",
          "name": "",
          "type": "address"
        }
      ],
      "stateMutability": "view",
      "type": "function",
      "constant": true
    },
    {
      "inputs": [],
      "name": "openx",
      "outputs": [
        {
          "internalType": "address",
          "name": "",
          "type": "address"
        }
      ],
      "stateMutability": "view",
      "type": "function",
      "constant": true
    },
    {
      "inputs": [],
      "name": "owner",
      "outputs": [
        {
          "internalType": "address",
          "name": "",
          "type": "address"
        }
      ],
      "stateMutability": "view",
      "type": "function",
      "constant": true
    },
    {
      "inputs": [],
      "name": "pendingOwner",
      "outputs": [
        {
          "internalType": "address",
          "name": "",
          "type": "address"
        }
      ],
      "stateMutability": "view",
      "type": "function",
      "constant": true
    },
    {
      "inputs": [
        {
          "internalType": "address",
          "name": "newOwner",
          "type": "address"
        },
        {
          "internalType": "bool",
          "name": "direct",
          "type": "bool"
        },
        {
          "internalType": "bool",
          "name": "renounce",
          "type": "bool"
        }
      ],
      "name": "transferOwnership",
      "outputs": [],
      "stateMutability": "nonpayable",
      "type": "function"
    },
    {
      "inputs": [],
      "name": "weth",
      "outputs": [
        {
          "internalType": "address",
          "name": "",
          "type": "address"
        }
      ],
      "stateMutability": "view",
      "type": "function",
      "constant": true
    },
    {
      "inputs": [
        {
          "internalType": "address",
          "name": "_contract",
          "type": "address"
        }
      ],
      "name": "setMultiTransfer",
      "outputs": [],
      "stateMutability": "nonpayable",
      "type": "function"
    },
    {
      "inputs": [
        {
          "internalType": "uint256",
          "name": "_ratio",
          "type": "uint256"
        }
      ],
      "name": "setRatioPercentageOpenswap",
      "outputs": [],
      "stateMutability": "nonpayable",
      "type": "function"
    },
    {
      "inputs": [
        {
          "internalType": "address",
          "name": "_user",
          "type": "address"
        }
      ],
      "name": "getRatio",
      "outputs": [
        {
          "internalType": "uint256",
          "name": "",
          "type": "uint256"
        }
      ],
      "stateMutability": "view",
      "type": "function",
      "constant": true
    },
    {
      "inputs": [
        {
          "internalType": "address",
          "name": "userAddr",
          "type": "address"
        },
        {
          "internalType": "uint256",
          "name": "stakedAmount",
          "type": "uint256"
        },
        {
          "internalType": "uint256",
          "name": "openxAmount",
          "type": "uint256"
        },
        {
          "internalType": "uint256",
          "name": "oneAmount",
          "type": "uint256"
        }
      ],
      "name": "logUser",
      "outputs": [],
      "stateMutability": "nonpayable",
      "type": "function"
    },
    {
      "inputs": [
        {
          "internalType": "address",
          "name": "fromToken",
          "type": "address"
        },
        {
          "internalType": "address",
          "name": "toToken",
          "type": "address"
        },
        {
          "internalType": "uint256",
          "name": "amountIn",
          "type": "uint256"
        }
      ],
      "name": "valueUSD",
      "outputs": [
        {
          "internalType": "uint256",
          "name": "",
          "type": "uint256"
        }
      ],
      "stateMutability": "nonpayable",
      "type": "function"
    }
  ],
  "bytecode": "0x60a0604052600480546001600160a01b0319908116730ab43550a6915f9f67d0c454c2e90385e6497eaa179091556005805482167301a4b054110d57069c1658afbc46730529a3e3261790556006805490911673cf664087a5bb0237a0bad6742852ec6c8d69a27a1790557f5d2f9817303b940c9bb4f47c8c566c5c034d984800000000000000000000000060805234801561009a57600080fd5b50600080546001600160a01b0319163390811782556040519091907f8be0079c531659141344cd1fd0a4f28419497f9722a3daafe3b4186f6b6457e0908290a360805160601c610b4f6100fc600039806105ac5280610a0b5250610b4f6000f3fe608060405234801561001057600080fd5b50600436106100ea5760003560e01c8063754b27071161008c578063af02c04211610066578063af02c04214610262578063b4ddb1e21461029a578063c45a0155146102b7578063e30c3978146102bf576100ea565b8063754b27071461022c5780638c39142b146102525780638da5cb5b1461025a576100ea565b80633fc8cef3116100c85780633fc8cef3146101ae5780634e71e0c8146101b65780635a5a770a146101be5780635e5dddd7146101e4576100ea565b8063078dfbe7146100ef57806328a670a61461012757806328b39bcf1461018a575b600080fd5b6101256004803603606081101561010557600080fd5b506001600160a01b038135169060208101351515906040013515156102c7565b005b61014d6004803603602081101561013d57600080fd5b50356001600160a01b0316610403565b604080516001600160a01b0390971687526020870195909552858501939093526060850191909152608084015260a0830152519081900360c00190f35b610192610444565b604080516001600160a01b039092168252519081900360200190f35b610192610453565b610125610462565b610125600480360360208110156101d457600080fd5b50356001600160a01b0316610524565b61021a600480360360608110156101fa57600080fd5b506001600160a01b038135811691602081013590911690604001356105a5565b60408051918252519081900360200190f35b61021a6004803603602081101561024257600080fd5b50356001600160a01b03166107e2565b61019261081a565b610192610829565b6101256004803603608081101561027857600080fd5b506001600160a01b038135169060208101359060408101359060600135610838565b610125600480360360208110156102b057600080fd5b5035610947565b610192610a09565b610192610a2d565b6000546001600160a01b03163314610326576040805162461bcd60e51b815260206004820181905260248201527f4f776e61626c653a2063616c6c6572206973206e6f7420746865206f776e6572604482015290519081900360640190fd5b81156103e2576001600160a01b0383161515806103405750805b610389576040805162461bcd60e51b81526020600482015260156024820152744f776e61626c653a207a65726f206164647265737360581b604482015290519081900360640190fd5b600080546040516001600160a01b03808716939216917f8be0079c531659141344cd1fd0a4f28419497f9722a3daafe3b4186f6b6457e091a3600080546001600160a01b0319166001600160a01b0385161790556103fe565b600180546001600160a01b0319166001600160a01b0385161790555b505050565b60026020819052600091825260409091208054600182015492820154600383015460048401546005909401546001600160a01b039093169493919290919086565b6004546001600160a01b031681565b6006546001600160a01b031681565b6001546001600160a01b03163381146104c2576040805162461bcd60e51b815260206004820181905260248201527f4f776e61626c653a2063616c6c657220213d2070656e64696e67206f776e6572604482015290519081900360640190fd5b600080546040516001600160a01b03808516939216917f8be0079c531659141344cd1fd0a4f28419497f9722a3daafe3b4186f6b6457e091a3600080546001600160a01b039092166001600160a01b0319928316179055600180549091169055565b6000546001600160a01b03163314610583576040805162461bcd60e51b815260206004820181905260248201527f4f776e61626c653a2063616c6c6572206973206e6f7420746865206f776e6572604482015290519081900360640190fd5b600380546001600160a01b0319166001600160a01b0392909216919091179055565b60008060007f00000000000000000000000000000000000000000000000000000000000000006001600160a01b031663e6a4390587876040518363ffffffff1660e01b815260040180836001600160a01b03168152602001826001600160a01b031681526020019250505060206040518083038186803b15801561062857600080fd5b505afa15801561063c573d6000803e3d6000fd5b505050506040513d602081101561065257600080fd5b505160408051630240bc6b60e21b8152905191925060009182916001600160a01b03851691630902f1ac91600480820192606092909190829003018186803b15801561069d57600080fd5b505afa1580156106b1573d6000803e3d6000fd5b505050506040513d60608110156106c757600080fd5b5080516020909101516dffffffffffffffffffffffffffff918216935016905060006106f5876103e5610a3c565b9050836001600160a01b0316630dfe16816040518163ffffffff1660e01b815260040160206040518083038186803b15801561073057600080fd5b505afa158015610744573d6000803e3d6000fd5b505050506040513d602081101561075a57600080fd5b50516001600160a01b038a8116911614156107aa576107858161077f856103e8610a3c565b90610a9e565b61079b836107958a6103e5610a3c565b90610a3c565b816107a257fe5b0494506107d5565b6107ba8161077f846103e8610a3c565b6107ca846107958a6103e5610a3c565b816107d157fe5b0494505b5092979650505050505050565b6001600160a01b038116600090815260026020819052604082209081015461080e576064915050610815565b6002015490505b919050565b6005546001600160a01b031681565b6000546001600160a01b031681565b6003546001600160a01b03163314610880576040805162461bcd60e51b815260206004808301919091526024820152632737b71760e11b604482015290519081900360640190fd5b6001600160a01b03841660009081526002602052604081209082156108bf576006546004546108bc916001600160a01b039081169116856105a5565b90505b6005546004546000916108df916001600160a01b039182169116876105a5565b600584018054820184019055600384018054860190556004840180548701905583549091506001600160a01b031661092b5782546001600160a01b0319166001600160a01b0388161783555b8260010154861461093e57600183018690555b50505050505050565b601e81101561099d576040805162461bcd60e51b815260206004820152601c60248201527f4d696e696d756d206d75737420626520333025204f70656e582e2e2e00000000604482015290519081900360640190fd5b60648111156109f3576040805162461bcd60e51b815260206004820152601b60248201527f4f6e6c7920757020746f20313030252e204c6f76652c206465762e0000000000604482015290519081900360640190fd5b3260009081526002602081905260409091200155565b7f000000000000000000000000000000000000000000000000000000000000000081565b6001546001600160a01b031681565b600082610a4b57506000610a98565b82820282848281610a5857fe5b0414610a955760405162461bcd60e51b8152600401808060200182810382526021815260200180610af96021913960400191505060405180910390fd5b90505b92915050565b600082820183811015610a95576040805162461bcd60e51b815260206004820152601b60248201527f536166654d6174683a206164646974696f6e206f766572666c6f770000000000604482015290519081900360640190fdfe536166654d6174683a206d756c7469706c69636174696f6e206f766572666c6f77a26469706673582212207c839a092647bd97f290b05a2efec1319a380d6c2dd348ab26e2145e05b286be64736f6c634300060c0033",
  "immutableReferences": {
    "1611": [
      {
        "length": 32,
        "start": 1452
      },
      {
        "length": 32,
        "start": 2571
      }
    ]
  },
  "source": "// SPDX-License-Identifier: MIT\npragma solidity 0.6.12;\n\nimport \"@openzeppelin/contracts/math/SafeMath.sol\";\nimport \"./interfaces/IUniswapV2Pair.sol\";\nimport \"./interfaces/IUniswapV2Factory.sol\";\nimport \"./Ownable.sol\";\n\ncontract delegateContract is Ownable{\n\tusing SafeMath for uint256;\n\tmapping(address => delegatorData) public delegatorStats;\n\taddress private multiTransfer;\n\taddress public bbusd = 0x0aB43550A6915F9f67d0c454C2E90385E6497EaA;\n\taddress public openx = 0x01A4b054110d57069c1658AFBC46730529A3E326;\n\taddress public weth = 0xcF664087a5bB0237a0BAd6742852ec6c8d69A27a;\n\n\tIUniswapV2Factory public immutable factory = IUniswapV2Factory(0x5d2F9817303b940C9bB4F47C8C566c5C034d9848);\n\n\tstruct delegatorData {\n\t   address delegatorAddr;\n\t   uint256 oneStaked;\n\t   uint256 oxratio;\n\t   uint256 earnedOne;\n\t   uint256 earnedOpenx;\n\t   uint256 earnedUsd;\n\t}\n\n\tmodifier onlyMultiTransfer{\n\t\trequire(msg.sender == multiTransfer, \"Non.\");\n\t\t _;\n\t}\n\n\tfunction setMultiTransfer(address _contract) public onlyOwner{\n\t\tmultiTransfer = _contract;\n\t}\n\n\tfunction setRatioPercentageOpenswap(uint256 _ratio) public {\n\t\trequire(_ratio >= 30, \"Minimum must be 30% OpenX...\");\n\t\trequire(_ratio <= 100, \"Only up to 100%. Love, dev.\");\n\t\tdelegatorData storage del = delegatorStats[tx.origin];\n\n\t\tdel.oxratio = _ratio;\n\t}\n\tfunction getRatio(address _user) public view returns(uint256){\n\t\tdelegatorData storage del = delegatorStats[_user];\n\t\tif(del.oxratio == 0)\n\t\t{\n\t\t\treturn uint256(100);\n\t\t}\n\t\telse{\n\t\t\treturn del.oxratio;\n\t\t}\t\n\t}\n\n\n\tfunction logUser(address userAddr,uint256 stakedAmount,uint256 openxAmount,uint256 oneAmount) public onlyMultiTransfer {\n\t\tdelegatorData storage del = delegatorStats[userAddr];\n\t\tuint256 usdOne;\n\t\tif(oneAmount != 0){\n\t\t\tusdOne = valueUSD(weth, bbusd, oneAmount);\n\t\t}\n\t\n\t\tuint256 usdOpenX = valueUSD(openx, bbusd, openxAmount);\n\t\tdel.earnedUsd = del.earnedUsd + usdOpenX + usdOne;\n\n\t\tdel.earnedOne += oneAmount;\n\t\tdel.earnedOpenx += openxAmount;\n\n\t\tif(del.delegatorAddr == address(0)){\n\t\t\tdel.delegatorAddr = userAddr;\n\t\t}\n\n\t\tif(stakedAmount != del.oneStaked){\n\t\t\tdel.oneStaked = stakedAmount;\n\t\t}\n\n\n\t}\n\tfunction valueUSD(address fromToken,address toToken,uint256 amountIn)public returns(uint256){\n\t\t // X1 - X5: OK\n\t\tuint256 amountOut;\n        IUniswapV2Pair pair = IUniswapV2Pair(factory.getPair(fromToken, toToken));\n   \n        (uint256 reserve0, uint256 reserve1,) = pair.getReserves();\n        uint256 amountInWithFee = amountIn.mul(997);\n\n        if (fromToken == pair.token0()) {\n         amountOut = amountIn.mul(997).mul(reserve1) / reserve0.mul(1000).add(amountInWithFee);\n         } else {\n         amountOut = amountIn.mul(997).mul(reserve0) / reserve1.mul(1000).add(amountInWithFee);\n         }\n      return amountOut;\n\t}\n}",
  "sourcePath": "/home/alex/dev/validatorBotv3/contracts/delegateContract.sol",
  "compiler": {
    "name": "solc",
    "version": "0.6.12+commit.27d51765.Emscripten.clang"
  },
  "schemaVersion": "3.4.3",
  "updatedAt": "2021-11-03T14:21:12.316Z",
  "networkType": "ethereum",
  "devdoc": {
    "kind": "dev",
    "methods": {},
    "version": 1
  },
  "userdoc": {
    "kind": "user",
    "methods": {},
    "version": 1
  }
}